{
  "_format": "hh-sol-artifact-1",
  "contractName": "BondIssuance",
  "sourceName": "contracts/BondIssuance.sol",
  "abi": [
    {
      "inputs": [
        {
          "internalType": "address",
          "name": "_bondToken",
          "type": "address"
        }
      ],
      "stateMutability": "nonpayable",
      "type": "constructor"
    },
    {
      "inputs": [],
      "name": "AccessControlBadConfirmation",
      "type": "error"
    },
    {
      "inputs": [
        {
          "internalType": "address",
          "name": "account",
          "type": "address"
        },
        {
          "internalType": "bytes32",
          "name": "neededRole",
          "type": "bytes32"
        }
      ],
      "name": "AccessControlUnauthorizedAccount",
      "type": "error"
    },
    {
      "inputs": [],
      "name": "EnforcedPause",
      "type": "error"
    },
    {
      "inputs": [],
      "name": "ExpectedPause",
      "type": "error"
    },
    {
      "inputs": [],
      "name": "ReentrancyGuardReentrantCall",
      "type": "error"
    },
    {
      "anonymous": false,
      "inputs": [
        {
          "indexed": true,
          "internalType": "uint256",
          "name": "projectId",
          "type": "uint256"
        },
        {
          "indexed": false,
          "internalType": "uint256",
          "name": "amount",
          "type": "uint256"
        },
        {
          "indexed": true,
          "internalType": "address",
          "name": "recipient",
          "type": "address"
        }
      ],
      "name": "FundsReleased",
      "type": "event"
    },
    {
      "anonymous": false,
      "inputs": [
        {
          "indexed": true,
          "internalType": "uint256",
          "name": "projectId",
          "type": "uint256"
        },
        {
          "indexed": true,
          "internalType": "address",
          "name": "investor",
          "type": "address"
        },
        {
          "indexed": false,
          "internalType": "uint256",
          "name": "amount",
          "type": "uint256"
        },
        {
          "indexed": false,
          "internalType": "uint256",
          "name": "tokensMinted",
          "type": "uint256"
        }
      ],
      "name": "InvestmentMade",
      "type": "event"
    },
    {
      "anonymous": false,
      "inputs": [
        {
          "indexed": false,
          "internalType": "address",
          "name": "account",
          "type": "address"
        }
      ],
      "name": "Paused",
      "type": "event"
    },
    {
      "anonymous": false,
      "inputs": [
        {
          "indexed": true,
          "internalType": "uint256",
          "name": "projectId",
          "type": "uint256"
        },
        {
          "indexed": false,
          "internalType": "string",
          "name": "name",
          "type": "string"
        },
        {
          "indexed": false,
          "internalType": "uint256",
          "name": "fundingGoal",
          "type": "uint256"
        },
        {
          "indexed": false,
          "internalType": "uint256",
          "name": "interestRate",
          "type": "uint256"
        }
      ],
      "name": "ProjectCreated",
      "type": "event"
    },
    {
      "anonymous": false,
      "inputs": [
        {
          "indexed": true,
          "internalType": "uint256",
          "name": "projectId",
          "type": "uint256"
        },
        {
          "indexed": false,
          "internalType": "bool",
          "name": "isActive",
          "type": "bool"
        }
      ],
      "name": "ProjectStatusChanged",
      "type": "event"
    },
    {
      "anonymous": false,
      "inputs": [
        {
          "indexed": true,
          "internalType": "bytes32",
          "name": "role",
          "type": "bytes32"
        },
        {
          "indexed": true,
          "internalType": "bytes32",
          "name": "previousAdminRole",
          "type": "bytes32"
        },
        {
          "indexed": true,
          "internalType": "bytes32",
          "name": "newAdminRole",
          "type": "bytes32"
        }
      ],
      "name": "RoleAdminChanged",
      "type": "event"
    },
    {
      "anonymous": false,
      "inputs": [
        {
          "indexed": true,
          "internalType": "bytes32",
          "name": "role",
          "type": "bytes32"
        },
        {
          "indexed": true,
          "internalType": "address",
          "name": "account",
          "type": "address"
        },
        {
          "indexed": true,
          "internalType": "address",
          "name": "sender",
          "type": "address"
        }
      ],
      "name": "RoleGranted",
      "type": "event"
    },
    {
      "anonymous": false,
      "inputs": [
        {
          "indexed": true,
          "internalType": "bytes32",
          "name": "role",
          "type": "bytes32"
        },
        {
          "indexed": true,
          "internalType": "address",
          "name": "account",
          "type": "address"
        },
        {
          "indexed": true,
          "internalType": "address",
          "name": "sender",
          "type": "address"
        }
      ],
      "name": "RoleRevoked",
      "type": "event"
    },
    {
      "anonymous": false,
      "inputs": [
        {
          "indexed": false,
          "internalType": "address",
          "name": "account",
          "type": "address"
        }
      ],
      "name": "Unpaused",
      "type": "event"
    },
    {
      "inputs": [],
      "name": "ADMIN_ROLE",
      "outputs": [
        {
          "internalType": "bytes32",
          "name": "",
          "type": "bytes32"
        }
      ],
      "stateMutability": "view",
      "type": "function"
    },
    {
      "inputs": [],
      "name": "DEFAULT_ADMIN_ROLE",
      "outputs": [
        {
          "internalType": "bytes32",
          "name": "",
          "type": "bytes32"
        }
      ],
      "stateMutability": "view",
      "type": "function"
    },
    {
      "inputs": [],
      "name": "PROJECT_MANAGER_ROLE",
      "outputs": [
        {
          "internalType": "bytes32",
          "name": "",
          "type": "bytes32"
        }
      ],
      "stateMutability": "view",
      "type": "function"
    },
    {
      "inputs": [],
      "name": "bondToken",
      "outputs": [
        {
          "internalType": "contract InfrastructureBond",
          "name": "",
          "type": "address"
        }
      ],
      "stateMutability": "view",
      "type": "function"
    },
    {
      "inputs": [
        {
          "internalType": "string",
          "name": "name",
          "type": "string"
        },
        {
          "internalType": "uint256",
          "name": "fundingGoal",
          "type": "uint256"
        },
        {
          "internalType": "uint256",
          "name": "interestRateAnnual",
          "type": "uint256"
        },
        {
          "internalType": "uint256",
          "name": "durationMonths",
          "type": "uint256"
        },
        {
          "internalType": "address",
          "name": "projectWallet",
          "type": "address"
        }
      ],
      "name": "createProject",
      "outputs": [
        {
          "internalType": "uint256",
          "name": "",
          "type": "uint256"
        }
      ],
      "stateMutability": "nonpayable",
      "type": "function"
    },
    {
      "inputs": [],
      "name": "getBalance",
      "outputs": [
        {
          "internalType": "uint256",
          "name": "",
          "type": "uint256"
        }
      ],
      "stateMutability": "view",
      "type": "function"
    },
    {
      "inputs": [
        {
          "internalType": "uint256",
          "name": "projectId",
          "type": "uint256"
        }
      ],
      "name": "getEscrowBalance",
      "outputs": [
        {
          "internalType": "uint256",
          "name": "",
          "type": "uint256"
        }
      ],
      "stateMutability": "view",
      "type": "function"
    },
    {
      "inputs": [],
      "name": "getInvestmentCount",
      "outputs": [
        {
          "internalType": "uint256",
          "name": "",
          "type": "uint256"
        }
      ],
      "stateMutability": "view",
      "type": "function"
    },
    {
      "inputs": [
        {
          "internalType": "uint256",
          "name": "projectId",
          "type": "uint256"
        }
      ],
      "name": "getProject",
      "outputs": [
        {
          "internalType": "string",
          "name": "name",
          "type": "string"
        },
        {
          "internalType": "uint256",
          "name": "fundingGoal",
          "type": "uint256"
        },
        {
          "internalType": "uint256",
          "name": "fundsRaised",
          "type": "uint256"
        },
        {
          "internalType": "uint256",
          "name": "fundsReleased",
          "type": "uint256"
        },
        {
          "internalType": "uint256",
          "name": "interestRate",
          "type": "uint256"
        },
        {
          "internalType": "uint256",
          "name": "duration",
          "type": "uint256"
        },
        {
          "internalType": "bool",
          "name": "isActive",
          "type": "bool"
        }
      ],
      "stateMutability": "view",
      "type": "function"
    },
    {
      "inputs": [
        {
          "internalType": "uint256",
          "name": "projectId",
          "type": "uint256"
        }
      ],
      "name": "getProjectInvestorCount",
      "outputs": [
        {
          "internalType": "uint256",
          "name": "",
          "type": "uint256"
        }
      ],
      "stateMutability": "view",
      "type": "function"
    },
    {
      "inputs": [
        {
          "internalType": "uint256",
          "name": "projectId",
          "type": "uint256"
        }
      ],
      "name": "getProjectInvestors",
      "outputs": [
        {
          "internalType": "address[]",
          "name": "",
          "type": "address[]"
        }
      ],
      "stateMutability": "view",
      "type": "function"
    },
    {
      "inputs": [
        {
          "internalType": "uint256",
          "name": "projectId",
          "type": "uint256"
        }
      ],
      "name": "getProjectProgress",
      "outputs": [
        {
          "internalType": "uint256",
          "name": "fundingProgress",
          "type": "uint256"
        },
        {
          "internalType": "uint256",
          "name": "releaseProgress",
          "type": "uint256"
        }
      ],
      "stateMutability": "view",
      "type": "function"
    },
    {
      "inputs": [
        {
          "internalType": "bytes32",
          "name": "role",
          "type": "bytes32"
        }
      ],
      "name": "getRoleAdmin",
      "outputs": [
        {
          "internalType": "bytes32",
          "name": "",
          "type": "bytes32"
        }
      ],
      "stateMutability": "view",
      "type": "function"
    },
    {
      "inputs": [
        {
          "internalType": "address",
          "name": "user",
          "type": "address"
        },
        {
          "internalType": "uint256",
          "name": "projectId",
          "type": "uint256"
        }
      ],
      "name": "getUserInvestment",
      "outputs": [
        {
          "internalType": "uint256",
          "name": "",
          "type": "uint256"
        }
      ],
      "stateMutability": "view",
      "type": "function"
    },
    {
      "inputs": [
        {
          "internalType": "bytes32",
          "name": "role",
          "type": "bytes32"
        },
        {
          "internalType": "address",
          "name": "account",
          "type": "address"
        }
      ],
      "name": "grantRole",
      "outputs": [],
      "stateMutability": "nonpayable",
      "type": "function"
    },
    {
      "inputs": [
        {
          "internalType": "bytes32",
          "name": "role",
          "type": "bytes32"
        },
        {
          "internalType": "address",
          "name": "account",
          "type": "address"
        }
      ],
      "name": "hasRole",
      "outputs": [
        {
          "internalType": "bool",
          "name": "",
          "type": "bool"
        }
      ],
      "stateMutability": "view",
      "type": "function"
    },
    {
      "inputs": [
        {
          "internalType": "uint256",
          "name": "projectId",
          "type": "uint256"
        }
      ],
      "name": "investInProject",
      "outputs": [],
      "stateMutability": "payable",
      "type": "function"
    },
    {
      "inputs": [
        {
          "internalType": "uint256",
          "name": "",
          "type": "uint256"
        }
      ],
      "name": "investments",
      "outputs": [
        {
          "internalType": "uint256",
          "name": "projectId",
          "type": "uint256"
        },
        {
          "internalType": "address",
          "name": "investor",
          "type": "address"
        },
        {
          "internalType": "uint256",
          "name": "amount",
          "type": "uint256"
        },
        {
          "internalType": "uint256",
          "name": "tokensMinted",
          "type": "uint256"
        },
        {
          "internalType": "uint256",
          "name": "timestamp",
          "type": "uint256"
        }
      ],
      "stateMutability": "view",
      "type": "function"
    },
    {
      "inputs": [],
      "name": "pause",
      "outputs": [],
      "stateMutability": "nonpayable",
      "type": "function"
    },
    {
      "inputs": [],
      "name": "paused",
      "outputs": [
        {
          "internalType": "bool",
          "name": "",
          "type": "bool"
        }
      ],
      "stateMutability": "view",
      "type": "function"
    },
    {
      "inputs": [],
      "name": "projectCount",
      "outputs": [
        {
          "internalType": "uint256",
          "name": "",
          "type": "uint256"
        }
      ],
      "stateMutability": "view",
      "type": "function"
    },
    {
      "inputs": [
        {
          "internalType": "uint256",
          "name": "",
          "type": "uint256"
        }
      ],
      "name": "projectInvestorCount",
      "outputs": [
        {
          "internalType": "uint256",
          "name": "",
          "type": "uint256"
        }
      ],
      "stateMutability": "view",
      "type": "function"
    },
    {
      "inputs": [
        {
          "internalType": "uint256",
          "name": "",
          "type": "uint256"
        },
        {
          "internalType": "uint256",
          "name": "",
          "type": "uint256"
        }
      ],
      "name": "projectInvestors",
      "outputs": [
        {
          "internalType": "address",
          "name": "",
          "type": "address"
        }
      ],
      "stateMutability": "view",
      "type": "function"
    },
    {
      "inputs": [
        {
          "internalType": "uint256",
          "name": "",
          "type": "uint256"
        }
      ],
      "name": "projects",
      "outputs": [
        {
          "internalType": "uint256",
          "name": "id",
          "type": "uint256"
        },
        {
          "internalType": "string",
          "name": "name",
          "type": "string"
        },
        {
          "internalType": "uint256",
          "name": "fundingGoal",
          "type": "uint256"
        },
        {
          "internalType": "uint256",
          "name": "fundsRaised",
          "type": "uint256"
        },
        {
          "internalType": "uint256",
          "name": "fundsReleased",
          "type": "uint256"
        },
        {
          "internalType": "uint256",
          "name": "interestRateAnnual",
          "type": "uint256"
        },
        {
          "internalType": "uint256",
          "name": "durationMonths",
          "type": "uint256"
        },
        {
          "internalType": "address",
          "name": "projectWallet",
          "type": "address"
        },
        {
          "internalType": "bool",
          "name": "isActive",
          "type": "bool"
        },
        {
          "internalType": "uint256",
          "name": "createdAt",
          "type": "uint256"
        }
      ],
      "stateMutability": "view",
      "type": "function"
    },
    {
      "inputs": [
        {
          "internalType": "uint256",
          "name": "projectId",
          "type": "uint256"
        },
        {
          "internalType": "uint256",
          "name": "amount",
          "type": "uint256"
        }
      ],
      "name": "releaseFunds",
      "outputs": [],
      "stateMutability": "nonpayable",
      "type": "function"
    },
    {
      "inputs": [
        {
          "internalType": "bytes32",
          "name": "role",
          "type": "bytes32"
        },
        {
          "internalType": "address",
          "name": "callerConfirmation",
          "type": "address"
        }
      ],
      "name": "renounceRole",
      "outputs": [],
      "stateMutability": "nonpayable",
      "type": "function"
    },
    {
      "inputs": [
        {
          "internalType": "bytes32",
          "name": "role",
          "type": "bytes32"
        },
        {
          "internalType": "address",
          "name": "account",
          "type": "address"
        }
      ],
      "name": "revokeRole",
      "outputs": [],
      "stateMutability": "nonpayable",
      "type": "function"
    },
    {
      "inputs": [
        {
          "internalType": "uint256",
          "name": "projectId",
          "type": "uint256"
        },
        {
          "internalType": "bool",
          "name": "isActive",
          "type": "bool"
        }
      ],
      "name": "setProjectStatus",
      "outputs": [],
      "stateMutability": "nonpayable",
      "type": "function"
    },
    {
      "inputs": [
        {
          "internalType": "bytes4",
          "name": "interfaceId",
          "type": "bytes4"
        }
      ],
      "name": "supportsInterface",
      "outputs": [
        {
          "internalType": "bool",
          "name": "",
          "type": "bool"
        }
      ],
      "stateMutability": "view",
      "type": "function"
    },
    {
      "inputs": [],
      "name": "totalFundsInEscrow",
      "outputs": [
        {
          "internalType": "uint256",
          "name": "",
          "type": "uint256"
        }
      ],
      "stateMutability": "view",
      "type": "function"
    },
    {
      "inputs": [],
      "name": "totalFundsRaised",
      "outputs": [
        {
          "internalType": "uint256",
          "name": "",
          "type": "uint256"
        }
      ],
      "stateMutability": "view",
      "type": "function"
    },
    {
      "inputs": [],
      "name": "unpause",
      "outputs": [],
      "stateMutability": "nonpayable",
      "type": "function"
    },
    {
      "inputs": [
        {
          "internalType": "address",
          "name": "",
          "type": "address"
        },
        {
          "internalType": "uint256",
          "name": "",
          "type": "uint256"
        }
      ],
      "name": "userInvestments",
      "outputs": [
        {
          "internalType": "uint256",
          "name": "",
          "type": "uint256"
        }
      ],
      "stateMutability": "view",
      "type": "function"
    }
  ],
  "bytecode": "0x60806040523480156200001157600080fd5b50604051620023ae380380620023ae8339810160408190526200003491620001d1565b600180556001600160a01b038116620000935760405162461bcd60e51b815260206004820152601a60248201527f496e76616c696420626f6e6420746f6b656e2061646472657373000000000000604482015260640160405180910390fd5b60028054610100600160a81b0319166101006001600160a01b03841602179055620000c060003362000122565b50620000ed7fa49807205ce4d355092ef5a8a18f56e8913cf4a201fbe287825b095693c217753362000122565b506200011a7fa88d484f5aeb539ab60f9bd084e23511bc356a4f715a255e909643bb69ddcb413362000122565b505062000203565b6000828152602081815260408083206001600160a01b038516845290915281205460ff16620001c7576000838152602081815260408083206001600160a01b03861684529091529020805460ff191660011790556200017e3390565b6001600160a01b0316826001600160a01b0316847f2f8788117e7eff1d82e926ec794901d17c78024a50270940304540a733656f0d60405160405180910390a4506001620001cb565b5060005b92915050565b600060208284031215620001e457600080fd5b81516001600160a01b0381168114620001fc57600080fd5b9392505050565b61219b80620002136000396000f3fe6080604052600436106101ee5760003560e01c80635b562fd81161010d578063b03f62dd116100a0578063df7843ae1161006f578063df7843ae146105eb578063f0f3f2c81461060b578063f37a86711461063e578063fce609031461066b578063fd345c8a1461068b57600080fd5b8063b03f62dd14610571578063b8d8469714610591578063c28f4392146105a6578063d547741f146105cb57600080fd5b80638b44da95116100dc5780638b44da95146104cc57806391d14854146105045780639244adcd14610524578063a217fddf1461055c57600080fd5b80635b562fd81461046a5780635c975abb1461047d57806375b238fc146104955780638456cb59146104b757600080fd5b80632f2ff15d116101855780633842ced3116101545780633842ced3146103f25780633af6cd1e1461041f5780633f4ba83a1461043f578063427c0c7f1461045457600080fd5b80632f2ff15d1461035757806332f258271461037957806336568abe146103bc57806336fbad26146103dc57600080fd5b806320ee2a2a116101c157806320ee2a2a146102b0578063248a9ca3146102dd5780632821a8491461030d57806329c76a731461032357600080fd5b806301ffc9a7146101f35780630e617ad114610228578063107046bd1461025d57806312065fe014610293575b600080fd5b3480156101ff57600080fd5b5061021361020e366004611bf0565b6106db565b60405190151581526020015b60405180910390f35b34801561023457600080fd5b50610248610243366004611c1a565b610712565b6040805192835260208301919091520161021f565b34801561026957600080fd5b5061027d610278366004611c1a565b6108a5565b60405161021f9a99989796959493929190611c79565b34801561029f57600080fd5b50475b60405190815260200161021f565b3480156102bc57600080fd5b506102a26102cb366004611c1a565b60066020526000908152604090205481565b3480156102e957600080fd5b506102a26102f8366004611c1a565b60009081526020819052604090206001015490565b34801561031957600080fd5b506102a260095481565b34801561032f57600080fd5b506102a27fa88d484f5aeb539ab60f9bd084e23511bc356a4f715a255e909643bb69ddcb4181565b34801561036357600080fd5b50610377610372366004611cfc565b61098c565b005b34801561038557600080fd5b506102a2610394366004611d28565b6001600160a01b03919091166000908152600460209081526040808320938352929052205490565b3480156103c857600080fd5b506103776103d7366004611cfc565b6109b7565b3480156103e857600080fd5b506102a260075481565b3480156103fe57600080fd5b5061041261040d366004611c1a565b6109ef565b60405161021f9190611d52565b34801561042b57600080fd5b5061037761043a366004611d9f565b610a5b565b34801561044b57600080fd5b50610377610af0565b34801561046057600080fd5b506102a260085481565b610377610478366004611c1a565b610b13565b34801561048957600080fd5b5060025460ff16610213565b3480156104a157600080fd5b506102a260008051602061214683398151915281565b3480156104c357600080fd5b50610377610ffc565b3480156104d857600080fd5b506104ec6104e7366004611dd4565b61101c565b6040516001600160a01b03909116815260200161021f565b34801561051057600080fd5b5061021361051f366004611cfc565b611054565b34801561053057600080fd5b506102a261053f366004611d28565b600460209081526000928352604080842090915290825290205481565b34801561056857600080fd5b506102a2600081565b34801561057d57600080fd5b506102a261058c366004611e0c565b61107d565b34801561059d57600080fd5b50600a546102a2565b3480156105b257600080fd5b506002546104ec9061010090046001600160a01b031681565b3480156105d757600080fd5b506103776105e6366004611cfc565b6113cd565b3480156105f757600080fd5b50610377610606366004611dd4565b6113f2565b34801561061757600080fd5b5061062b610626366004611c1a565b611692565b60405161021f9796959493929190611eeb565b34801561064a57600080fd5b506102a2610659366004611c1a565b60009081526006602052604090205490565b34801561067757600080fd5b506102a2610686366004611c1a565b611820565b34801561069757600080fd5b506106ab6106a6366004611c1a565b61195f565b604080519586526001600160a01b039094166020860152928401919091526060830152608082015260a00161021f565b60006001600160e01b03198216637965db0b60e01b148061070c57506301ffc9a760e01b6001600160e01b03198316145b92915050565b600080600060036000858152602001908152602001600020604051806101400160405290816000820154815260200160018201805461075090611f31565b80601f016020809104026020016040519081016040528092919081815260200182805461077c90611f31565b80156107c95780601f1061079e576101008083540402835291602001916107c9565b820191906000526020600020905b8154815290600101906020018083116107ac57829003601f168201915b50505091835250506002820154602082015260038201546040808301919091526004830154606083015260058301546080830152600683015460a083015260078301546001600160a01b03811660c0840152600160a01b900460ff16151560e08301526008909201546101009091015281015190915061084a576000610869565b6040810151606082015161085f906064611f81565b6108699190611f98565b9250600081606001511161087e57600061089d565b60608101516080820151610893906064611f81565b61089d9190611f98565b915050915091565b600360205260009081526040902080546001820180549192916108c790611f31565b80601f01602080910402602001604051908101604052809291908181526020018280546108f390611f31565b80156109405780601f1061091557610100808354040283529160200191610940565b820191906000526020600020905b81548152906001019060200180831161092357829003601f168201915b5050505060028301546003840154600485015460058601546006870154600788015460089098015496979496939550919390926001600160a01b03821691600160a01b900460ff16908a565b6000828152602081905260409020600101546109a7816119aa565b6109b183836119b4565b50505050565b6001600160a01b03811633146109e05760405163334bd91960e11b815260040160405180910390fd5b6109ea8282611a46565b505050565b600081815260056020908152604091829020805483518184028101840190945280845260609392830182828015610a4f57602002820191906000526020600020905b81546001600160a01b03168152600190910190602001808311610a31575b50505050509050919050565b7fa88d484f5aeb539ab60f9bd084e23511bc356a4f715a255e909643bb69ddcb41610a85816119aa565b600083815260036020526040908190206007018054841515600160a01b0260ff60a01b199091161790555183907f73c9860341fcf3a75820bf92ceafc9c352f5590f6693cd99123378b454372b7d90610ae390851515815260200190565b60405180910390a2505050565b600080516020612146833981519152610b08816119aa565b610b10611ab1565b50565b610b1b611b03565b610b23611b2d565b60008181526003602052604090206007810154600160a01b900460ff16610b895760405162461bcd60e51b815260206004820152601560248201527450726f6a656374206973206e6f742061637469766560581b60448201526064015b60405180910390fd5b60003411610bed5760405162461bcd60e51b815260206004820152602b60248201527f496e766573746d656e7420616d6f756e74206d7573742062652067726561746560448201526a72207468616e207a65726f60a81b6064820152608401610b80565b8060020154348260030154610c029190611fba565b1115610c505760405162461bcd60e51b815260206004820152601f60248201527f496e766573746d656e7420657863656564732066756e64696e6720676f616c006044820152606401610b80565b6000600260019054906101000a90046001600160a01b03166001600160a01b03166306ffce536040518163ffffffff1660e01b8152600401602060405180830381865afa158015610ca5573d6000803e3d6000fd5b505050506040513d601f19601f82011682018060405250810190610cc99190611fcd565b905060006064610ce183670de0b6b3a7640000611f81565b610ceb9190611f98565b610cfd34670de0b6b3a7640000611f81565b610d079190611f98565b905060008111610d505760405162461bcd60e51b8152602060048201526014602482015273125b9d995cdd1b595b9d081d1bdbc81cdb585b1b60621b6044820152606401610b80565b34836003016000828254610d649190611fba565b925050819055503460086000828254610d7d9190611fba565b925050819055503460096000828254610d969190611fba565b90915550503360009081526004602090815260408083208784529091528120549003610e0857600084815260056020908152604080832080546001810182559084528284200180546001600160a01b0319163317905586835260069091528120805491610e0283611fe6565b91905055505b33600090815260046020908152604080832087845290915281208054349290610e32908490611fba565b90915550506040805160a081018252858152336020820181815234838501908152606084018681524260808601908152600a805460018101825560009190915295517fc65a7bb8d6351c1cf70c95a316cc6a92839c986682d98bc35f958f4883f9d2a860059097029687015592517fc65a7bb8d6351c1cf70c95a316cc6a92839c986682d98bc35f958f4883f9d2a9860180546001600160a01b0319166001600160a01b0392831617905591517fc65a7bb8d6351c1cf70c95a316cc6a92839c986682d98bc35f958f4883f9d2aa860155517fc65a7bb8d6351c1cf70c95a316cc6a92839c986682d98bc35f958f4883f9d2ab85015590517fc65a7bb8d6351c1cf70c95a316cc6a92839c986682d98bc35f958f4883f9d2ac9093019290925560025492516340c10f1960e01b815260048101919091526024810184905261010090920416906340c10f1990604401600060405180830381600087803b158015610f9b57600080fd5b505af1158015610faf573d6000803e3d6000fd5b505060408051348152602081018590523393508792507ff31343540affa723d26848192c2f28ab76925951531440b6f2e082030394314f910160405180910390a3505050610b1060018055565b600080516020612146833981519152611014816119aa565b610b10611b53565b6005602052816000526040600020818154811061103857600080fd5b6000918252602090912001546001600160a01b03169150829050565b6000918252602082815260408084206001600160a01b0393909316845291905290205460ff1690565b60007fa88d484f5aeb539ab60f9bd084e23511bc356a4f715a255e909643bb69ddcb416110a9816119aa565b60008751116110f25760405162461bcd60e51b8152602060048201526015602482015274141c9bda9958dd081b985b59481c995c5d5a5c9959605a1b6044820152606401610b80565b600086116111515760405162461bcd60e51b815260206004820152602660248201527f46756e64696e6720676f616c206d7573742062652067726561746572207468616044820152656e207a65726f60d01b6064820152608401610b80565b60008511801561116357506107d08511155b6111bb5760405162461bcd60e51b815260206004820152602360248201527f496e7465726573742072617465206d757374206265206265747765656e20302d60448201526232302560e81b6064820152608401610b80565b6000841180156111cd57506101688411155b6112275760405162461bcd60e51b815260206004820152602560248201527f4475726174696f6e206d757374206265206265747765656e20312d333630206d6044820152646f6e74687360d81b6064820152608401610b80565b6001600160a01b0383166112765760405162461bcd60e51b8152602060048201526016602482015275125b9d985b1a59081c1c9bda9958dd081dd85b1b195d60521b6044820152606401610b80565b6007805490600061128683611fe6565b9091555050600754604080516101408101825282815260208082018b81528284018b90526000606084018190526080840181905260a084018b905260c084018a90526001600160a01b03891660e085015260016101008501819052426101208601528682526003909352939093208251815592519192919082019061130b908261204d565b506040828101516002830155606083015160038301556080830151600483015560a0830151600583015560c0830151600683015560e08301516007830180546101008601511515600160a01b026001600160a81b03199091166001600160a01b0390931692909217919091179055610120909201516008909101555181907f6ad8e25e78a676033392e940160acc1fa955f929f88d380f5fd2d2f5d9ce9e20906113ba908b908b908b9061210d565b60405180910390a2979650505050505050565b6000828152602081905260409020600101546113e8816119aa565b6109b18383611a46565b60008051602061214683398151915261140a816119aa565b611412611b03565b60008381526003602052604090206007810154600160a01b900460ff166114735760405162461bcd60e51b815260206004820152601560248201527450726f6a656374206973206e6f742061637469766560581b6044820152606401610b80565b600083116114c35760405162461bcd60e51b815260206004820181905260248201527f416d6f756e74206d7573742062652067726561746572207468616e207a65726f6044820152606401610b80565b80600301548382600401546114d89190611fba565b11156115265760405162461bcd60e51b815260206004820152601f60248201527f43616e6e6f742072656c65617365206d6f7265207468616e20726169736564006044820152606401610b80565b8260095410156115785760405162461bcd60e51b815260206004820152601b60248201527f496e73756666696369656e7420657363726f772062616c616e636500000000006044820152606401610b80565b8281600401600082825461158c9190611fba565b9250508190555082600960008282546115a59190612132565b909155505060078101546040516000916001600160a01b03169085908381818185875af1925050503d80600081146115f9576040519150601f19603f3d011682016040523d82523d6000602084013e6115fe565b606091505b50509050806116415760405162461bcd60e51b815260206004820152600f60248201526e151c985b9cd9995c8819985a5b1959608a1b6044820152606401610b80565b60078201546040518581526001600160a01b039091169086907f807158a396c8ce26fb6a4a44930e1b49876133ba7806dbaac491ea4713e4515e9060200160405180910390a350506109ea60018055565b60606000806000806000806000600360008a815260200190815260200160002060405180610140016040529081600082015481526020016001820180546116d890611f31565b80601f016020809104026020016040519081016040528092919081815260200182805461170490611f31565b80156117515780601f1061172657610100808354040283529160200191611751565b820191906000526020600020905b81548152906001019060200180831161173457829003601f168201915b5050505050815260200160028201548152602001600382015481526020016004820154815260200160058201548152602001600682015481526020016007820160009054906101000a90046001600160a01b03166001600160a01b03166001600160a01b031681526020016007820160149054906101000a900460ff16151515158152602001600882015481525050905080602001518160400151826060015183608001518460a001518560c00151866101000151975097509750975097509750975050919395979092949650565b6000818152600360209081526040808320815161014081019092528054825260018101805485948401919061185490611f31565b80601f016020809104026020016040519081016040528092919081815260200182805461188090611f31565b80156118cd5780601f106118a2576101008083540402835291602001916118cd565b820191906000526020600020905b8154815290600101906020018083116118b057829003601f168201915b5050509183525050600282015460208201526003820154604082015260048201546060808301919091526005830154608080840191909152600684015460a084015260078401546001600160a01b03811660c0850152600160a01b900460ff16151560e084015260089093015461010090920191909152908201519082015191925061195891612132565b9392505050565b600a818154811061196f57600080fd5b6000918252602090912060059091020180546001820154600283015460038401546004909401549294506001600160a01b0390911692909185565b610b108133611b90565b60006119c08383611054565b611a3e576000838152602081815260408083206001600160a01b03861684529091529020805460ff191660011790556119f63390565b6001600160a01b0316826001600160a01b0316847f2f8788117e7eff1d82e926ec794901d17c78024a50270940304540a733656f0d60405160405180910390a450600161070c565b50600061070c565b6000611a528383611054565b15611a3e576000838152602081815260408083206001600160a01b0386168085529252808320805460ff1916905551339286917ff6391f5c32d9c69d2a47ea670b442974b53935d1edc7fd64eb21e047a839171b9190a450600161070c565b611ab9611bcd565b6002805460ff191690557f5db9ee0a495bf2e6ff9c91a7834c1ba4fdd244a5e8aa4e537bd38aeae4b073aa335b6040516001600160a01b03909116815260200160405180910390a1565b600260015403611b2657604051633ee5aeb560e01b815260040160405180910390fd5b6002600155565b60025460ff1615611b515760405163d93c066560e01b815260040160405180910390fd5b565b611b5b611b2d565b6002805460ff191660011790557f62e78cea01bee320cd4e420270b5ea74000d11b0c9f74754ebdbfc544b05a258611ae63390565b611b9a8282611054565b611bc95760405163e2517d3f60e01b81526001600160a01b038216600482015260248101839052604401610b80565b5050565b60025460ff16611b5157604051638dfc202b60e01b815260040160405180910390fd5b600060208284031215611c0257600080fd5b81356001600160e01b03198116811461195857600080fd5b600060208284031215611c2c57600080fd5b5035919050565b6000815180845260005b81811015611c5957602081850181015186830182015201611c3d565b506000602082860101526020601f19601f83011685010191505092915050565b60006101408c8352806020840152611c938184018d611c33565b604084019b909b5250506060810197909752608087019590955260a086019390935260c08501919091526001600160a01b031660e084015215156101008301526101209091015292915050565b80356001600160a01b0381168114611cf757600080fd5b919050565b60008060408385031215611d0f57600080fd5b82359150611d1f60208401611ce0565b90509250929050565b60008060408385031215611d3b57600080fd5b611d4483611ce0565b946020939093013593505050565b6020808252825182820181905260009190848201906040850190845b81811015611d935783516001600160a01b031683529284019291840191600101611d6e565b50909695505050505050565b60008060408385031215611db257600080fd5b8235915060208301358015158114611dc957600080fd5b809150509250929050565b60008060408385031215611de757600080fd5b50508035926020909101359150565b634e487b7160e01b600052604160045260246000fd5b600080600080600060a08688031215611e2457600080fd5b853567ffffffffffffffff80821115611e3c57600080fd5b818801915088601f830112611e5057600080fd5b813581811115611e6257611e62611df6565b604051601f8201601f19908116603f01168101908382118183101715611e8a57611e8a611df6565b816040528281528b6020848701011115611ea357600080fd5b826020860160208301376000602084830101528099505050505050602086013593506040860135925060608601359150611edf60808701611ce0565b90509295509295909350565b60e081526000611efe60e083018a611c33565b60208301989098525060408101959095526060850193909352608084019190915260a0830152151560c090910152919050565b600181811c90821680611f4557607f821691505b602082108103611f6557634e487b7160e01b600052602260045260246000fd5b50919050565b634e487b7160e01b600052601160045260246000fd5b808202811582820484141761070c5761070c611f6b565b600082611fb557634e487b7160e01b600052601260045260246000fd5b500490565b8082018082111561070c5761070c611f6b565b600060208284031215611fdf57600080fd5b5051919050565b600060018201611ff857611ff8611f6b565b5060010190565b601f8211156109ea57600081815260208120601f850160051c810160208610156120265750805b601f850160051c820191505b8181101561204557828155600101612032565b505050505050565b815167ffffffffffffffff81111561206757612067611df6565b61207b816120758454611f31565b84611fff565b602080601f8311600181146120b057600084156120985750858301515b600019600386901b1c1916600185901b178555612045565b600085815260208120601f198616915b828110156120df578886015182559484019460019091019084016120c0565b50858210156120fd5787850151600019600388901b60f8161c191681555b5050505050600190811b01905550565b6060815260006121206060830186611c33565b60208301949094525060400152919050565b8181038181111561070c5761070c611f6b56fea49807205ce4d355092ef5a8a18f56e8913cf4a201fbe287825b095693c21775a2646970667358221220b135302a57cdb40ff51dbd3d65734a0563e2480e84c1337e4ec4c348182fbcf064736f6c63430008140033",
  "linkReferences": {},
  "deployedLinkReferences": {}
}