{
  "_format": "hh-sol-artifact-1",
  "contractName": "InterestCalculator",
  "sourceName": "contracts/InterestCalculator.sol",
  "abi": [
    {
      "inputs": [
        {
          "internalType": "address",
          "name": "_bondToken",
          "type": "address"
        },
        {
          "internalType": "address",
          "name": "_bondIssuance",
          "type": "address"
        }
      ],
      "stateMutability": "nonpayable",
      "type": "constructor"
    },
    {
      "inputs": [],
      "name": "AccessControlBadConfirmation",
      "type": "error"
    },
    {
      "inputs": [
        {
          "internalType": "address",
          "name": "account",
          "type": "address"
        },
        {
          "internalType": "bytes32",
          "name": "neededRole",
          "type": "bytes32"
        }
      ],
      "name": "AccessControlUnauthorizedAccount",
      "type": "error"
    },
    {
      "inputs": [],
      "name": "ReentrancyGuardReentrantCall",
      "type": "error"
    },
    {
      "anonymous": false,
      "inputs": [
        {
          "indexed": true,
          "internalType": "address",
          "name": "investor",
          "type": "address"
        },
        {
          "indexed": true,
          "internalType": "uint256",
          "name": "projectId",
          "type": "uint256"
        },
        {
          "indexed": false,
          "internalType": "uint256",
          "name": "amount",
          "type": "uint256"
        }
      ],
      "name": "InterestAccrued",
      "type": "event"
    },
    {
      "anonymous": false,
      "inputs": [
        {
          "indexed": true,
          "internalType": "address",
          "name": "investor",
          "type": "address"
        },
        {
          "indexed": true,
          "internalType": "uint256",
          "name": "projectId",
          "type": "uint256"
        },
        {
          "indexed": false,
          "internalType": "uint256",
          "name": "amount",
          "type": "uint256"
        },
        {
          "indexed": false,
          "internalType": "uint256",
          "name": "tokensMinted",
          "type": "uint256"
        }
      ],
      "name": "InterestClaimed",
      "type": "event"
    },
    {
      "anonymous": false,
      "inputs": [
        {
          "indexed": true,
          "internalType": "uint256",
          "name": "projectId",
          "type": "uint256"
        },
        {
          "indexed": false,
          "internalType": "uint256",
          "name": "totalAmount",
          "type": "uint256"
        },
        {
          "indexed": false,
          "internalType": "uint256",
          "name": "investorCount",
          "type": "uint256"
        }
      ],
      "name": "InterestDistributed",
      "type": "event"
    },
    {
      "anonymous": false,
      "inputs": [
        {
          "indexed": true,
          "internalType": "bytes32",
          "name": "role",
          "type": "bytes32"
        },
        {
          "indexed": true,
          "internalType": "bytes32",
          "name": "previousAdminRole",
          "type": "bytes32"
        },
        {
          "indexed": true,
          "internalType": "bytes32",
          "name": "newAdminRole",
          "type": "bytes32"
        }
      ],
      "name": "RoleAdminChanged",
      "type": "event"
    },
    {
      "anonymous": false,
      "inputs": [
        {
          "indexed": true,
          "internalType": "bytes32",
          "name": "role",
          "type": "bytes32"
        },
        {
          "indexed": true,
          "internalType": "address",
          "name": "account",
          "type": "address"
        },
        {
          "indexed": true,
          "internalType": "address",
          "name": "sender",
          "type": "address"
        }
      ],
      "name": "RoleGranted",
      "type": "event"
    },
    {
      "anonymous": false,
      "inputs": [
        {
          "indexed": true,
          "internalType": "bytes32",
          "name": "role",
          "type": "bytes32"
        },
        {
          "indexed": true,
          "internalType": "address",
          "name": "account",
          "type": "address"
        },
        {
          "indexed": true,
          "internalType": "address",
          "name": "sender",
          "type": "address"
        }
      ],
      "name": "RoleRevoked",
      "type": "event"
    },
    {
      "inputs": [],
      "name": "ADMIN_ROLE",
      "outputs": [
        {
          "internalType": "bytes32",
          "name": "",
          "type": "bytes32"
        }
      ],
      "stateMutability": "view",
      "type": "function"
    },
    {
      "inputs": [],
      "name": "DEFAULT_ADMIN_ROLE",
      "outputs": [
        {
          "internalType": "bytes32",
          "name": "",
          "type": "bytes32"
        }
      ],
      "stateMutability": "view",
      "type": "function"
    },
    {
      "inputs": [
        {
          "internalType": "address",
          "name": "",
          "type": "address"
        },
        {
          "internalType": "uint256",
          "name": "",
          "type": "uint256"
        }
      ],
      "name": "accruals",
      "outputs": [
        {
          "internalType": "uint256",
          "name": "projectId",
          "type": "uint256"
        },
        {
          "internalType": "address",
          "name": "investor",
          "type": "address"
        },
        {
          "internalType": "uint256",
          "name": "tokensHeld",
          "type": "uint256"
        },
        {
          "internalType": "uint256",
          "name": "lastAccrualDate",
          "type": "uint256"
        },
        {
          "internalType": "uint256",
          "name": "accruedAmount",
          "type": "uint256"
        },
        {
          "internalType": "uint256",
          "name": "paidAmount",
          "type": "uint256"
        }
      ],
      "stateMutability": "view",
      "type": "function"
    },
    {
      "inputs": [
        {
          "internalType": "address[]",
          "name": "investors",
          "type": "address[]"
        },
        {
          "internalType": "uint256",
          "name": "projectId",
          "type": "uint256"
        }
      ],
      "name": "batchUpdateAccruals",
      "outputs": [],
      "stateMutability": "nonpayable",
      "type": "function"
    },
    {
      "inputs": [],
      "name": "bondIssuance",
      "outputs": [
        {
          "internalType": "contract BondIssuance",
          "name": "",
          "type": "address"
        }
      ],
      "stateMutability": "view",
      "type": "function"
    },
    {
      "inputs": [],
      "name": "bondToken",
      "outputs": [
        {
          "internalType": "contract InfrastructureBond",
          "name": "",
          "type": "address"
        }
      ],
      "stateMutability": "view",
      "type": "function"
    },
    {
      "inputs": [
        {
          "internalType": "address",
          "name": "investor",
          "type": "address"
        },
        {
          "internalType": "uint256",
          "name": "projectId",
          "type": "uint256"
        }
      ],
      "name": "calculateAccruedInterest",
      "outputs": [
        {
          "internalType": "uint256",
          "name": "",
          "type": "uint256"
        }
      ],
      "stateMutability": "view",
      "type": "function"
    },
    {
      "inputs": [
        {
          "internalType": "uint256",
          "name": "projectId",
          "type": "uint256"
        }
      ],
      "name": "claimInterest",
      "outputs": [],
      "stateMutability": "nonpayable",
      "type": "function"
    },
    {
      "inputs": [
        {
          "internalType": "uint256",
          "name": "projectId",
          "type": "uint256"
        }
      ],
      "name": "distributeProjectInterest",
      "outputs": [
        {
          "internalType": "uint256",
          "name": "totalDistributed",
          "type": "uint256"
        },
        {
          "internalType": "uint256",
          "name": "investorCount",
          "type": "uint256"
        }
      ],
      "stateMutability": "nonpayable",
      "type": "function"
    },
    {
      "inputs": [
        {
          "internalType": "address",
          "name": "investor",
          "type": "address"
        },
        {
          "internalType": "uint256",
          "name": "projectId",
          "type": "uint256"
        }
      ],
      "name": "getAccrualInfo",
      "outputs": [
        {
          "internalType": "uint256",
          "name": "tokensHeld",
          "type": "uint256"
        },
        {
          "internalType": "uint256",
          "name": "lastAccrualDate",
          "type": "uint256"
        },
        {
          "internalType": "uint256",
          "name": "accruedAmount",
          "type": "uint256"
        },
        {
          "internalType": "uint256",
          "name": "paidAmount",
          "type": "uint256"
        },
        {
          "internalType": "uint256",
          "name": "currentAccrued",
          "type": "uint256"
        }
      ],
      "stateMutability": "view",
      "type": "function"
    },
    {
      "inputs": [],
      "name": "getGlobalStats",
      "outputs": [
        {
          "internalType": "uint256",
          "name": "totalAccrued",
          "type": "uint256"
        },
        {
          "internalType": "uint256",
          "name": "totalPaid",
          "type": "uint256"
        },
        {
          "internalType": "uint256",
          "name": "pending",
          "type": "uint256"
        }
      ],
      "stateMutability": "view",
      "type": "function"
    },
    {
      "inputs": [
        {
          "internalType": "bytes32",
          "name": "role",
          "type": "bytes32"
        }
      ],
      "name": "getRoleAdmin",
      "outputs": [
        {
          "internalType": "bytes32",
          "name": "",
          "type": "bytes32"
        }
      ],
      "stateMutability": "view",
      "type": "function"
    },
    {
      "inputs": [
        {
          "internalType": "address",
          "name": "investor",
          "type": "address"
        }
      ],
      "name": "getTotalAccruedInterest",
      "outputs": [
        {
          "internalType": "uint256",
          "name": "",
          "type": "uint256"
        }
      ],
      "stateMutability": "view",
      "type": "function"
    },
    {
      "inputs": [
        {
          "internalType": "address",
          "name": "investor",
          "type": "address"
        }
      ],
      "name": "getTotalPaidInterest",
      "outputs": [
        {
          "internalType": "uint256",
          "name": "",
          "type": "uint256"
        }
      ],
      "stateMutability": "view",
      "type": "function"
    },
    {
      "inputs": [
        {
          "internalType": "address",
          "name": "investor",
          "type": "address"
        }
      ],
      "name": "getUserProjects",
      "outputs": [
        {
          "internalType": "uint256[]",
          "name": "",
          "type": "uint256[]"
        }
      ],
      "stateMutability": "view",
      "type": "function"
    },
    {
      "inputs": [
        {
          "internalType": "bytes32",
          "name": "role",
          "type": "bytes32"
        },
        {
          "internalType": "address",
          "name": "account",
          "type": "address"
        }
      ],
      "name": "grantRole",
      "outputs": [],
      "stateMutability": "nonpayable",
      "type": "function"
    },
    {
      "inputs": [
        {
          "internalType": "bytes32",
          "name": "role",
          "type": "bytes32"
        },
        {
          "internalType": "address",
          "name": "account",
          "type": "address"
        }
      ],
      "name": "hasRole",
      "outputs": [
        {
          "internalType": "bool",
          "name": "",
          "type": "bool"
        }
      ],
      "stateMutability": "view",
      "type": "function"
    },
    {
      "inputs": [
        {
          "internalType": "bytes32",
          "name": "role",
          "type": "bytes32"
        },
        {
          "internalType": "address",
          "name": "callerConfirmation",
          "type": "address"
        }
      ],
      "name": "renounceRole",
      "outputs": [],
      "stateMutability": "nonpayable",
      "type": "function"
    },
    {
      "inputs": [
        {
          "internalType": "bytes32",
          "name": "role",
          "type": "bytes32"
        },
        {
          "internalType": "address",
          "name": "account",
          "type": "address"
        }
      ],
      "name": "revokeRole",
      "outputs": [],
      "stateMutability": "nonpayable",
      "type": "function"
    },
    {
      "inputs": [
        {
          "internalType": "bytes4",
          "name": "interfaceId",
          "type": "bytes4"
        }
      ],
      "name": "supportsInterface",
      "outputs": [
        {
          "internalType": "bool",
          "name": "",
          "type": "bool"
        }
      ],
      "stateMutability": "view",
      "type": "function"
    },
    {
      "inputs": [],
      "name": "totalInterestAccrued",
      "outputs": [
        {
          "internalType": "uint256",
          "name": "",
          "type": "uint256"
        }
      ],
      "stateMutability": "view",
      "type": "function"
    },
    {
      "inputs": [],
      "name": "totalInterestPaid",
      "outputs": [
        {
          "internalType": "uint256",
          "name": "",
          "type": "uint256"
        }
      ],
      "stateMutability": "view",
      "type": "function"
    },
    {
      "inputs": [
        {
          "internalType": "address",
          "name": "investor",
          "type": "address"
        },
        {
          "internalType": "uint256",
          "name": "projectId",
          "type": "uint256"
        }
      ],
      "name": "updateAccrual",
      "outputs": [],
      "stateMutability": "nonpayable",
      "type": "function"
    },
    {
      "inputs": [
        {
          "internalType": "address",
          "name": "",
          "type": "address"
        },
        {
          "internalType": "uint256",
          "name": "",
          "type": "uint256"
        }
      ],
      "name": "userProjects",
      "outputs": [
        {
          "internalType": "uint256",
          "name": "",
          "type": "uint256"
        }
      ],
      "stateMutability": "view",
      "type": "function"
    }
  ],
  "bytecode": "0x60806040523480156200001157600080fd5b5060405162001abe38038062001abe83398101604081905262000034916200022b565b600180556001600160a01b038216620000945760405162461bcd60e51b815260206004820152601a60248201527f496e76616c696420626f6e6420746f6b656e206164647265737300000000000060448201526064015b60405180910390fd5b6001600160a01b038116620000ec5760405162461bcd60e51b815260206004820152601d60248201527f496e76616c696420626f6e642069737375616e6365206164647265737300000060448201526064016200008b565b600280546001600160a01b038085166001600160a01b0319928316179092556003805492841692909116919091179055620001296000336200015f565b50620001567fa49807205ce4d355092ef5a8a18f56e8913cf4a201fbe287825b095693c21775336200015f565b50505062000263565b6000828152602081815260408083206001600160a01b038516845290915281205460ff1662000204576000838152602081815260408083206001600160a01b03861684529091529020805460ff19166001179055620001bb3390565b6001600160a01b0316826001600160a01b0316847f2f8788117e7eff1d82e926ec794901d17c78024a50270940304540a733656f0d60405160405180910390a450600162000208565b5060005b92915050565b80516001600160a01b03811681146200022657600080fd5b919050565b600080604083850312156200023f57600080fd5b6200024a836200020e565b91506200025a602084016200020e565b90509250929050565b61184b80620002736000396000f3fe608060405234801561001057600080fd5b50600436106101585760003560e01c806378dc048a116100c3578063a4ff5e8c1161007c578063a4ff5e8c14610391578063c28f4392146103cc578063cd649373146103df578063d3cbf756146103f2578063d547741f14610405578063e32e723c1461041857600080fd5b806378dc048a1461031f578063844ee8d4146103325780638c0243e71461034557806391d148541461034e5780639ab0af5614610361578063a217fddf1461038957600080fd5b806336568abe1161011557806336568abe146101fa5780634d69d2c51461020d578063596999b214610238578063662ef9ae1461024b5780636b4169c3146102d557806375b238fc146102f857600080fd5b806301ffc9a71461015d5780631cd724ac14610185578063248a9ca31461019c5780632eb375ea146101bf5780632f2ff15d146101d45780632fa9c007146101e7575b600080fd5b61017061016b3660046113c6565b610438565b60405190151581526020015b60405180910390f35b61018e60065481565b60405190815260200161017c565b61018e6101aa3660046113f7565b60009081526020819052604090206001015490565b6101d26101cd3660046113f7565b61046f565b005b6101d26101e2366004611425565b61074d565b61018e6101f5366004611455565b610778565b6101d2610208366004611425565b6107a9565b600354610220906001600160a01b031681565b6040516001600160a01b03909116815260200161017c565b61018e610246366004611481565b6107e1565b6102a0610259366004611455565b6004602081815260009384526040808520909152918352912080546001820154600283015460038401549484015460059094015492946001600160a01b0390921693909286565b604080519687526001600160a01b039095166020870152938501929092526060840152608083015260a082015260c00161017c565b6102dd61089b565b6040805193845260208401929092529082015260600161017c565b61018e7fa49807205ce4d355092ef5a8a18f56e8913cf4a201fbe287825b095693c2177581565b61018e61032d366004611455565b6108c1565b61018e610340366004611481565b610b3c565b61018e60075481565b61017061035c366004611425565b610c15565b61037461036f3660046113f7565b610c3e565b6040805192835260208301919091520161017c565b61018e600081565b6103a461039f366004611455565b610dcb565b604080519586526020860194909452928401919091526060830152608082015260a00161017c565b600254610220906001600160a01b031681565b6101d26103ed36600461149e565b610e6c565b6101d2610400366004611455565b610f9a565b6101d2610413366004611425565b6111c7565b61042b610426366004611481565b6111ec565b60405161017c9190611519565b60006001600160e01b03198216637965db0b60e01b148061046957506301ffc9a760e01b6001600160e01b03198316145b92915050565b610477611258565b336104828183610f9a565b6001600160a01b038116600090815260046020818152604080842086855290915290912090810154806104f35760405162461bcd60e51b81526020600482015260146024820152734e6f20696e74657265737420746f20636c61696d60601b60448201526064015b60405180910390fd5b600254604080516306ffce5360e01b815290516000926001600160a01b0316916306ffce539160048083019260209291908290030181865afa15801561053d573d6000803e3d6000fd5b505050506040513d601f19601f82011682018060405250810190610561919061155d565b90506000606461057983670de0b6b3a764000061158c565b61058391906115a3565b61059584670de0b6b3a764000061158c565b61059f91906115a3565b9050600081116105f15760405162461bcd60e51b815260206004820152601b60248201527f496e74657265737420746f6f20736d616c6c20746f20636c61696d000000000060448201526064016104ea565b8284600501600082825461060591906115c5565b9091555050600060048501819055600780548592906106259084906115c5565b90915550506002546040516340c10f1960e01b81526001600160a01b03878116600483015260248201849052909116906340c10f1990604401600060405180830381600087803b15801561067857600080fd5b505af115801561068c573d6000803e3d6000fd5b5050600254604051631fe8f36d60e01b81526001600160a01b038981166004830152602482018690529091169250631fe8f36d9150604401600060405180830381600087803b1580156106de57600080fd5b505af11580156106f2573d6000803e3d6000fd5b505060408051868152602081018590528993506001600160a01b03891692507fe9859620b58f0afb306d24740e59dcdbdb2034c6d8fefc4091e6897cf2e16962910160405180910390a3505050505061074a60018055565b50565b60008281526020819052604090206001015461076881611282565b610772838361128c565b50505050565b6005602052816000526040600020818154811061079457600080fd5b90600052602060002001600091509150505481565b6001600160a01b03811633146107d25760405163334bd91960e11b815260040160405180910390fd5b6107dc828261131e565b505050565b6001600160a01b03811660009081526005602090815260408083208054825181850281018501909352808352849383018282801561083e57602002820191906000526020600020905b81548152602001906001019080831161082a575b505050505090506000805b82518110156108935761087585848381518110610868576108686115d8565b60200260200101516108c1565b61087f90836115c5565b91508061088b816115ee565b915050610849565b509392505050565b60008060006006546007546007546006546108b69190611607565b925092509250909192565b6002546040516370a0823160e01b81526001600160a01b03848116600483015260009283929116906370a0823190602401602060405180830381865afa15801561090f573d6000803e3d6000fd5b505050506040513d601f19601f82011682018060405250810190610933919061155d565b905080600003610947576000915050610469565b6003546040516332f2582760e01b81526001600160a01b0386811660048301526024820186905260009216906332f2582790604401602060405180830381865afa158015610999573d6000803e3d6000fd5b505050506040513d601f19601f820116820180604052508101906109bd919061155d565b9050806000036109d257600092505050610469565b600354604051631e1e7e5960e31b8152600481018690526000916001600160a01b03169063f0f3f2c890602401600060405180830381865afa158015610a1c573d6000803e3d6000fd5b505050506040513d6000823e601f3d908101601f19168201604052610a449190810190611676565b50506001600160a01b03808c1660009081526004602081815260408084208f85528252808420815160c081018352815481526001820154909616928601929092526002820154908501526003810154606085018190529181015460808501526005015460a08401529297509095509093508390039150610ac390505750425b600062015180610ad38342611607565b610add91906115a3565b905080600003610af857505060800151935061046992505050565b6000618e9482610b08878a61158c565b610b12919061158c565b610b1c91906115a3565b9050808460800151610b2e91906115c5565b9a9950505050505050505050565b6001600160a01b038116600090815260056020908152604080832080548251818502810185019093528083528493830182828015610b9957602002820191906000526020600020905b815481526020019060010190808311610b85575b505050505090506000805b8251811015610893576001600160a01b03851660009081526004602052604081208451909190859084908110610bdc57610bdc6115d8565b602002602001015181526020019081526020016000206005015482610c0191906115c5565b915080610c0d816115ee565b915050610ba4565b6000918252602082815260408084206001600160a01b0393909316845291905290205460ff1690565b6000807fa49807205ce4d355092ef5a8a18f56e8913cf4a201fbe287825b095693c21775610c6b81611282565b600354604051633842ced360e01b8152600481018690526000916001600160a01b031690633842ced390602401600060405180830381865afa158015610cb5573d6000803e3d6000fd5b505050506040513d6000823e601f3d908101601f19168201604052610cdd9190810190611763565b9050600093508051925060005b8151811015610d8857610d16828281518110610d0857610d086115d8565b602002602001015187610f9a565b60046000838381518110610d2c57610d2c6115d8565b60200260200101516001600160a01b03166001600160a01b0316815260200190815260200160002060008781526020019081526020016000206004015485610d7491906115c5565b945080610d80816115ee565b915050610cea565b50604080518581526020810185905286917f6087c70ab6ce25aa33f41b87d67cd2dda12f8dda0bb15997ad389887bfb806ae910160405180910390a25050915091565b6001600160a01b0380831660009081526004602081815260408084208685528252808420815160c08101835281548152600182015490961692860192909252600282015490850152600381015460608501529081015460808401526005015460a083015290819081908190819081610e4389896108c1565b60408301516060840151608085015160a090950151919c909b5093995097509550909350505050565b7fa49807205ce4d355092ef5a8a18f56e8913cf4a201fbe287825b095693c21775610e9681611282565b60005b83811015610f93576003546000906001600160a01b03166332f25827878785818110610ec757610ec76115d8565b9050602002016020810190610edc9190611481565b6040516001600160e01b031960e084901b1681526001600160a01b03909116600482015260248101879052604401602060405180830381865afa158015610f27573d6000803e3d6000fd5b505050506040513d601f19601f82011682018060405250810190610f4b919061155d565b1115610f8157610f81858583818110610f6657610f666115d8565b9050602002016020810190610f7b9190611481565b84610f9a565b80610f8b816115ee565b915050610e99565b5050505050565b6003546040516332f2582760e01b81526001600160a01b0384811660048301526024820184905260009216906332f2582790604401602060405180830381865afa158015610fec573d6000803e3d6000fd5b505050506040513d601f19601f82011682018060405250810190611010919061155d565b9050600081116110585760405162461bcd60e51b8152602060048201526013602482015272139bc81a5b9d995cdd1b595b9d08199bdd5b99606a1b60448201526064016104ea565b6002546040516370a0823160e01b81526001600160a01b03858116600483015260009216906370a0823190602401602060405180830381865afa1580156110a3573d6000803e3d6000fd5b505050506040513d601f19601f820116820180604052508101906110c7919061155d565b905060006110d585856108c1565b6001600160a01b03861660009081526004602090815260408083208884529091528120600381015492935091900361114b57848155600180820180546001600160a01b0319166001600160a01b038916908117909155600090815260056020908152604082208054938401815582529020018590555b60028101839055426003820155600481018290556111698280611607565b6006600082825461117a91906115c5565b909155505060405182815285906001600160a01b038816907f4557e05caeefc19fe1b4badbbd2996f86791aa6e830e224dc79c20725c38b9c19060200160405180910390a3505050505050565b6000828152602081905260409020600101546111e281611282565b610772838361131e565b6001600160a01b03811660009081526005602090815260409182902080548351818402810184019094528084526060939283018282801561124c57602002820191906000526020600020905b815481526020019060010190808311611238575b50505050509050919050565b60026001540361127b57604051633ee5aeb560e01b815260040160405180910390fd5b6002600155565b61074a8133611389565b60006112988383610c15565b611316576000838152602081815260408083206001600160a01b03861684529091529020805460ff191660011790556112ce3390565b6001600160a01b0316826001600160a01b0316847f2f8788117e7eff1d82e926ec794901d17c78024a50270940304540a733656f0d60405160405180910390a4506001610469565b506000610469565b600061132a8383610c15565b15611316576000838152602081815260408083206001600160a01b0386168085529252808320805460ff1916905551339286917ff6391f5c32d9c69d2a47ea670b442974b53935d1edc7fd64eb21e047a839171b9190a4506001610469565b6113938282610c15565b6113c25760405163e2517d3f60e01b81526001600160a01b0382166004820152602481018390526044016104ea565b5050565b6000602082840312156113d857600080fd5b81356001600160e01b0319811681146113f057600080fd5b9392505050565b60006020828403121561140957600080fd5b5035919050565b6001600160a01b038116811461074a57600080fd5b6000806040838503121561143857600080fd5b82359150602083013561144a81611410565b809150509250929050565b6000806040838503121561146857600080fd5b823561147381611410565b946020939093013593505050565b60006020828403121561149357600080fd5b81356113f081611410565b6000806000604084860312156114b357600080fd5b833567ffffffffffffffff808211156114cb57600080fd5b818601915086601f8301126114df57600080fd5b8135818111156114ee57600080fd5b8760208260051b850101111561150357600080fd5b6020928301989097509590910135949350505050565b6020808252825182820181905260009190848201906040850190845b8181101561155157835183529284019291840191600101611535565b50909695505050505050565b60006020828403121561156f57600080fd5b5051919050565b634e487b7160e01b600052601160045260246000fd5b808202811582820484141761046957610469611576565b6000826115c057634e487b7160e01b600052601260045260246000fd5b500490565b8082018082111561046957610469611576565b634e487b7160e01b600052603260045260246000fd5b60006001820161160057611600611576565b5060010190565b8181038181111561046957610469611576565b634e487b7160e01b600052604160045260246000fd5b604051601f8201601f1916810167ffffffffffffffff811182821017156116595761165961161a565b604052919050565b8051801515811461167157600080fd5b919050565b600080600080600080600060e0888a03121561169157600080fd5b875167ffffffffffffffff808211156116a957600080fd5b818a0191508a601f8301126116bd57600080fd5b8151818111156116cf576116cf61161a565b602091506116e5601f8201601f19168301611630565b8181528c838386010111156116f957600080fd5b60005b828110156117175784810184015182820185015283016116fc565b506000838383010152809a505050808a01519750505060408801519450606088015193506080880151925060a0880151915061175560c08901611661565b905092959891949750929550565b6000602080838503121561177657600080fd5b825167ffffffffffffffff8082111561178e57600080fd5b818501915085601f8301126117a257600080fd5b8151818111156117b4576117b461161a565b8060051b91506117c5848301611630565b81815291830184019184810190888411156117df57600080fd5b938501935b8385101561180957845192506117f983611410565b82825293850193908501906117e4565b9897505050505050505056fea2646970667358221220b07c33c05bbb7dd2cdbfc2364d1b275bfd98ab7cea3955990814380b9f44856a64736f6c63430008140033",
  "linkReferences": {},
  "deployedLinkReferences": {}
}