{
  "_format": "hh-sol-artifact-1",
  "contractName": "MilestoneManager",
  "sourceName": "contracts/MilestoneManager.sol",
  "abi": [
    {
      "inputs": [
        {
          "internalType": "address",
          "name": "_bondIssuance",
          "type": "address"
        }
      ],
      "stateMutability": "nonpayable",
      "type": "constructor"
    },
    {
      "inputs": [],
      "name": "AccessControlBadConfirmation",
      "type": "error"
    },
    {
      "inputs": [
        {
          "internalType": "address",
          "name": "account",
          "type": "address"
        },
        {
          "internalType": "bytes32",
          "name": "neededRole",
          "type": "bytes32"
        }
      ],
      "name": "AccessControlUnauthorizedAccount",
      "type": "error"
    },
    {
      "inputs": [],
      "name": "ReentrancyGuardReentrantCall",
      "type": "error"
    },
    {
      "anonymous": false,
      "inputs": [
        {
          "indexed": true,
          "internalType": "uint256",
          "name": "projectId",
          "type": "uint256"
        },
        {
          "indexed": true,
          "internalType": "uint256",
          "name": "milestoneIndex",
          "type": "uint256"
        },
        {
          "indexed": false,
          "internalType": "uint256",
          "name": "fundsReleased",
          "type": "uint256"
        },
        {
          "indexed": false,
          "internalType": "string",
          "name": "evidenceHash",
          "type": "string"
        }
      ],
      "name": "MilestoneCompleted",
      "type": "event"
    },
    {
      "anonymous": false,
      "inputs": [
        {
          "indexed": true,
          "internalType": "uint256",
          "name": "projectId",
          "type": "uint256"
        },
        {
          "indexed": true,
          "internalType": "uint256",
          "name": "milestoneIndex",
          "type": "uint256"
        },
        {
          "indexed": false,
          "internalType": "string",
          "name": "name",
          "type": "string"
        },
        {
          "indexed": false,
          "internalType": "uint256",
          "name": "fundsToRelease",
          "type": "uint256"
        }
      ],
      "name": "MilestoneCreated",
      "type": "event"
    },
    {
      "anonymous": false,
      "inputs": [
        {
          "indexed": true,
          "internalType": "uint256",
          "name": "projectId",
          "type": "uint256"
        },
        {
          "indexed": true,
          "internalType": "uint256",
          "name": "milestoneIndex",
          "type": "uint256"
        },
        {
          "indexed": false,
          "internalType": "string",
          "name": "reason",
          "type": "string"
        }
      ],
      "name": "MilestoneFailed",
      "type": "event"
    },
    {
      "anonymous": false,
      "inputs": [
        {
          "indexed": true,
          "internalType": "uint256",
          "name": "projectId",
          "type": "uint256"
        },
        {
          "indexed": true,
          "internalType": "uint256",
          "name": "milestoneIndex",
          "type": "uint256"
        },
        {
          "indexed": false,
          "internalType": "enum MilestoneManager.MilestoneStatus",
          "name": "status",
          "type": "uint8"
        }
      ],
      "name": "MilestoneStatusUpdated",
      "type": "event"
    },
    {
      "anonymous": false,
      "inputs": [
        {
          "indexed": true,
          "internalType": "bytes32",
          "name": "role",
          "type": "bytes32"
        },
        {
          "indexed": true,
          "internalType": "bytes32",
          "name": "previousAdminRole",
          "type": "bytes32"
        },
        {
          "indexed": true,
          "internalType": "bytes32",
          "name": "newAdminRole",
          "type": "bytes32"
        }
      ],
      "name": "RoleAdminChanged",
      "type": "event"
    },
    {
      "anonymous": false,
      "inputs": [
        {
          "indexed": true,
          "internalType": "bytes32",
          "name": "role",
          "type": "bytes32"
        },
        {
          "indexed": true,
          "internalType": "address",
          "name": "account",
          "type": "address"
        },
        {
          "indexed": true,
          "internalType": "address",
          "name": "sender",
          "type": "address"
        }
      ],
      "name": "RoleGranted",
      "type": "event"
    },
    {
      "anonymous": false,
      "inputs": [
        {
          "indexed": true,
          "internalType": "bytes32",
          "name": "role",
          "type": "bytes32"
        },
        {
          "indexed": true,
          "internalType": "address",
          "name": "account",
          "type": "address"
        },
        {
          "indexed": true,
          "internalType": "address",
          "name": "sender",
          "type": "address"
        }
      ],
      "name": "RoleRevoked",
      "type": "event"
    },
    {
      "inputs": [],
      "name": "ADMIN_ROLE",
      "outputs": [
        {
          "internalType": "bytes32",
          "name": "",
          "type": "bytes32"
        }
      ],
      "stateMutability": "view",
      "type": "function"
    },
    {
      "inputs": [],
      "name": "DEFAULT_ADMIN_ROLE",
      "outputs": [
        {
          "internalType": "bytes32",
          "name": "",
          "type": "bytes32"
        }
      ],
      "stateMutability": "view",
      "type": "function"
    },
    {
      "inputs": [],
      "name": "VERIFIER_ROLE",
      "outputs": [
        {
          "internalType": "bytes32",
          "name": "",
          "type": "bytes32"
        }
      ],
      "stateMutability": "view",
      "type": "function"
    },
    {
      "inputs": [],
      "name": "bondIssuance",
      "outputs": [
        {
          "internalType": "contract BondIssuance",
          "name": "",
          "type": "address"
        }
      ],
      "stateMutability": "view",
      "type": "function"
    },
    {
      "inputs": [
        {
          "internalType": "uint256",
          "name": "projectId",
          "type": "uint256"
        },
        {
          "internalType": "uint256",
          "name": "milestoneIndex",
          "type": "uint256"
        },
        {
          "internalType": "string",
          "name": "evidenceHash",
          "type": "string"
        }
      ],
      "name": "completeMilestone",
      "outputs": [],
      "stateMutability": "nonpayable",
      "type": "function"
    },
    {
      "inputs": [
        {
          "internalType": "uint256",
          "name": "projectId",
          "type": "uint256"
        },
        {
          "internalType": "string",
          "name": "name",
          "type": "string"
        },
        {
          "internalType": "string",
          "name": "description",
          "type": "string"
        },
        {
          "internalType": "uint256",
          "name": "targetDate",
          "type": "uint256"
        },
        {
          "internalType": "uint256",
          "name": "fundsToRelease",
          "type": "uint256"
        }
      ],
      "name": "createMilestone",
      "outputs": [
        {
          "internalType": "uint256",
          "name": "",
          "type": "uint256"
        }
      ],
      "stateMutability": "nonpayable",
      "type": "function"
    },
    {
      "inputs": [
        {
          "internalType": "uint256",
          "name": "projectId",
          "type": "uint256"
        },
        {
          "internalType": "uint256",
          "name": "milestoneIndex",
          "type": "uint256"
        },
        {
          "internalType": "string",
          "name": "reason",
          "type": "string"
        }
      ],
      "name": "failMilestone",
      "outputs": [],
      "stateMutability": "nonpayable",
      "type": "function"
    },
    {
      "inputs": [
        {
          "internalType": "uint256",
          "name": "projectId",
          "type": "uint256"
        }
      ],
      "name": "getCompletionPercentage",
      "outputs": [
        {
          "internalType": "uint256",
          "name": "",
          "type": "uint256"
        }
      ],
      "stateMutability": "view",
      "type": "function"
    },
    {
      "inputs": [
        {
          "internalType": "uint256",
          "name": "projectId",
          "type": "uint256"
        },
        {
          "internalType": "uint256",
          "name": "milestoneIndex",
          "type": "uint256"
        }
      ],
      "name": "getMilestone",
      "outputs": [
        {
          "internalType": "string",
          "name": "name",
          "type": "string"
        },
        {
          "internalType": "string",
          "name": "description",
          "type": "string"
        },
        {
          "internalType": "uint256",
          "name": "targetDate",
          "type": "uint256"
        },
        {
          "internalType": "uint256",
          "name": "fundsToRelease",
          "type": "uint256"
        },
        {
          "internalType": "enum MilestoneManager.MilestoneStatus",
          "name": "status",
          "type": "uint8"
        },
        {
          "internalType": "uint256",
          "name": "completedDate",
          "type": "uint256"
        },
        {
          "internalType": "string",
          "name": "evidenceHash",
          "type": "string"
        }
      ],
      "stateMutability": "view",
      "type": "function"
    },
    {
      "inputs": [
        {
          "internalType": "uint256",
          "name": "projectId",
          "type": "uint256"
        }
      ],
      "name": "getMilestoneCount",
      "outputs": [
        {
          "internalType": "uint256",
          "name": "",
          "type": "uint256"
        }
      ],
      "stateMutability": "view",
      "type": "function"
    },
    {
      "inputs": [
        {
          "internalType": "uint256",
          "name": "projectId",
          "type": "uint256"
        }
      ],
      "name": "getPendingFunds",
      "outputs": [
        {
          "internalType": "uint256",
          "name": "",
          "type": "uint256"
        }
      ],
      "stateMutability": "view",
      "type": "function"
    },
    {
      "inputs": [
        {
          "internalType": "uint256",
          "name": "projectId",
          "type": "uint256"
        }
      ],
      "name": "getProjectMilestones",
      "outputs": [
        {
          "components": [
            {
              "internalType": "uint256",
              "name": "id",
              "type": "uint256"
            },
            {
              "internalType": "uint256",
              "name": "projectId",
              "type": "uint256"
            },
            {
              "internalType": "string",
              "name": "name",
              "type": "string"
            },
            {
              "internalType": "string",
              "name": "description",
              "type": "string"
            },
            {
              "internalType": "uint256",
              "name": "targetDate",
              "type": "uint256"
            },
            {
              "internalType": "uint256",
              "name": "fundsToRelease",
              "type": "uint256"
            },
            {
              "internalType": "enum MilestoneManager.MilestoneStatus",
              "name": "status",
              "type": "uint8"
            },
            {
              "internalType": "uint256",
              "name": "completedDate",
              "type": "uint256"
            },
            {
              "internalType": "string",
              "name": "evidenceHash",
              "type": "string"
            },
            {
              "internalType": "address",
              "name": "verifiedBy",
              "type": "address"
            }
          ],
          "internalType": "struct MilestoneManager.Milestone[]",
          "name": "",
          "type": "tuple[]"
        }
      ],
      "stateMutability": "view",
      "type": "function"
    },
    {
      "inputs": [
        {
          "internalType": "bytes32",
          "name": "role",
          "type": "bytes32"
        }
      ],
      "name": "getRoleAdmin",
      "outputs": [
        {
          "internalType": "bytes32",
          "name": "",
          "type": "bytes32"
        }
      ],
      "stateMutability": "view",
      "type": "function"
    },
    {
      "inputs": [
        {
          "internalType": "bytes32",
          "name": "role",
          "type": "bytes32"
        },
        {
          "internalType": "address",
          "name": "account",
          "type": "address"
        }
      ],
      "name": "grantRole",
      "outputs": [],
      "stateMutability": "nonpayable",
      "type": "function"
    },
    {
      "inputs": [
        {
          "internalType": "bytes32",
          "name": "role",
          "type": "bytes32"
        },
        {
          "internalType": "address",
          "name": "account",
          "type": "address"
        }
      ],
      "name": "hasRole",
      "outputs": [
        {
          "internalType": "bool",
          "name": "",
          "type": "bool"
        }
      ],
      "stateMutability": "view",
      "type": "function"
    },
    {
      "inputs": [
        {
          "internalType": "uint256",
          "name": "projectId",
          "type": "uint256"
        },
        {
          "internalType": "uint256",
          "name": "milestoneIndex",
          "type": "uint256"
        }
      ],
      "name": "isMilestoneOverdue",
      "outputs": [
        {
          "internalType": "bool",
          "name": "",
          "type": "bool"
        }
      ],
      "stateMutability": "view",
      "type": "function"
    },
    {
      "inputs": [
        {
          "internalType": "uint256",
          "name": "",
          "type": "uint256"
        },
        {
          "internalType": "uint256",
          "name": "",
          "type": "uint256"
        }
      ],
      "name": "milestoneExists",
      "outputs": [
        {
          "internalType": "bool",
          "name": "",
          "type": "bool"
        }
      ],
      "stateMutability": "view",
      "type": "function"
    },
    {
      "inputs": [
        {
          "internalType": "uint256",
          "name": "",
          "type": "uint256"
        },
        {
          "internalType": "uint256",
          "name": "",
          "type": "uint256"
        }
      ],
      "name": "projectMilestones",
      "outputs": [
        {
          "internalType": "uint256",
          "name": "id",
          "type": "uint256"
        },
        {
          "internalType": "uint256",
          "name": "projectId",
          "type": "uint256"
        },
        {
          "internalType": "string",
          "name": "name",
          "type": "string"
        },
        {
          "internalType": "string",
          "name": "description",
          "type": "string"
        },
        {
          "internalType": "uint256",
          "name": "targetDate",
          "type": "uint256"
        },
        {
          "internalType": "uint256",
          "name": "fundsToRelease",
          "type": "uint256"
        },
        {
          "internalType": "enum MilestoneManager.MilestoneStatus",
          "name": "status",
          "type": "uint8"
        },
        {
          "internalType": "uint256",
          "name": "completedDate",
          "type": "uint256"
        },
        {
          "internalType": "string",
          "name": "evidenceHash",
          "type": "string"
        },
        {
          "internalType": "address",
          "name": "verifiedBy",
          "type": "address"
        }
      ],
      "stateMutability": "view",
      "type": "function"
    },
    {
      "inputs": [
        {
          "internalType": "bytes32",
          "name": "role",
          "type": "bytes32"
        },
        {
          "internalType": "address",
          "name": "callerConfirmation",
          "type": "address"
        }
      ],
      "name": "renounceRole",
      "outputs": [],
      "stateMutability": "nonpayable",
      "type": "function"
    },
    {
      "inputs": [
        {
          "internalType": "bytes32",
          "name": "role",
          "type": "bytes32"
        },
        {
          "internalType": "address",
          "name": "account",
          "type": "address"
        }
      ],
      "name": "revokeRole",
      "outputs": [],
      "stateMutability": "nonpayable",
      "type": "function"
    },
    {
      "inputs": [
        {
          "internalType": "bytes4",
          "name": "interfaceId",
          "type": "bytes4"
        }
      ],
      "name": "supportsInterface",
      "outputs": [
        {
          "internalType": "bool",
          "name": "",
          "type": "bool"
        }
      ],
      "stateMutability": "view",
      "type": "function"
    },
    {
      "inputs": [],
      "name": "totalMilestones",
      "outputs": [
        {
          "internalType": "uint256",
          "name": "",
          "type": "uint256"
        }
      ],
      "stateMutability": "view",
      "type": "function"
    },
    {
      "inputs": [
        {
          "internalType": "uint256",
          "name": "projectId",
          "type": "uint256"
        },
        {
          "internalType": "uint256",
          "name": "milestoneIndex",
          "type": "uint256"
        },
        {
          "internalType": "enum MilestoneManager.MilestoneStatus",
          "name": "status",
          "type": "uint8"
        }
      ],
      "name": "updateMilestoneStatus",
      "outputs": [],
      "stateMutability": "nonpayable",
      "type": "function"
    }
  ],
  "bytecode": "0x60806040523480156200001157600080fd5b5060405162002a4738038062002a478339810160408190526200003491620001cc565b600180556001600160a01b038116620000935760405162461bcd60e51b815260206004820152601d60248201527f496e76616c696420626f6e642069737375616e63652061646472657373000000604482015260640160405180910390fd5b600280546001600160a01b0319166001600160a01b038316179055620000bb6000336200011d565b50620000e87fa49807205ce4d355092ef5a8a18f56e8913cf4a201fbe287825b095693c21775336200011d565b50620001157f0ce23c3e399818cfee81a7ab0880f714e53d7672b08df0fa62f2843416e1ea09336200011d565b5050620001fe565b6000828152602081815260408083206001600160a01b038516845290915281205460ff16620001c2576000838152602081815260408083206001600160a01b03861684529091529020805460ff19166001179055620001793390565b6001600160a01b0316826001600160a01b0316847f2f8788117e7eff1d82e926ec794901d17c78024a50270940304540a733656f0d60405160405180910390a4506001620001c6565b5060005b92915050565b600060208284031215620001df57600080fd5b81516001600160a01b0381168114620001f757600080fd5b9392505050565b612839806200020e6000396000f3fe608060405234801561001057600080fd5b506004361061014d5760003560e01c806375b238fc116100c3578063a217fddf1161007c578063a217fddf1461033d578063a6b5082114610345578063af00736314610358578063c2010e501461036b578063d547741f1461038b578063e7705db61461039e57600080fd5b806375b238fc146102895780637ebf26b4146102b05780637fbedb75146102de5780638dc7b615146102f15780638ed9895c1461030457806391d148541461032a57600080fd5b80632f2ff15d116101155780632f2ff15d146101e657806336568abe146101f957806339a4e2d21461020c5780634d69d2c51461021557806352766d80146102405780636cb0adba1461026057600080fd5b806301ffc9a7146101525780631c634a351461017a578063248a9ca31461018f578063267bf8a5146101c05780632c992aeb146101d3575b600080fd5b6101656101603660046120af565b6103c5565b60405190151581526020015b60405180910390f35b61018d6101883660046120e0565b6103fc565b005b6101b261019d36600461211d565b60009081526020819052604090206001015490565b604051908152602001610171565b6101b26101ce36600461211d565b610568565b6101b26101e136600461211d565b610884565b61018d6101f4366004612136565b610bac565b61018d610207366004612136565b610bd7565b6101b260055481565b600254610228906001600160a01b031681565b6040516001600160a01b039091168152602001610171565b61025361024e36600461211d565b610c0f565b60405161017191906121f0565b61027361026e3660046122fb565b610eb3565b6040516101719a9998979695949392919061231d565b6101b27fa49807205ce4d355092ef5a8a18f56e8913cf4a201fbe287825b095693c2177581565b6101656102be3660046122fb565b600460209081526000928352604080842090915290825290205460ff1681565b61018d6102ec366004612449565b6110ce565b6101b26102ff366004612499565b611378565b6103176103123660046122fb565b6117e8565b6040516101719796959493929190612518565b610165610338366004612136565b611add565b6101b2600081565b6101656103533660046122fb565b611b06565b61018d610366366004612449565b611dd9565b6101b261037936600461211d565b60009081526003602052604090205490565b61018d610399366004612136565b611f19565b6101b27f0ce23c3e399818cfee81a7ab0880f714e53d7672b08df0fa62f2843416e1ea0981565b60006001600160e01b03198216637965db0b60e01b14806103f657506301ffc9a760e01b6001600160e01b03198316145b92915050565b7f0ce23c3e399818cfee81a7ab0880f714e53d7672b08df0fa62f2843416e1ea0961042681611f3e565b600084815260046020908152604080832086845290915290205460ff166104685760405162461bcd60e51b815260040161045f9061257e565b60405180910390fd5b6000848152600360205260408120805485908110610488576104886125b5565b60009182526020909120600a9091020190506002600682015460ff1660048111156104b5576104b56121b8565b036105025760405162461bcd60e51b815260206004820152601b60248201527f4d696c6573746f6e6520616c726561647920636f6d706c657465640000000000604482015260640161045f565b60068101805484919060ff19166001836004811115610523576105236121b8565b021790555083857f855d7f62719d90b6dffa5d0c4b7a917b0e8a2fe2521d54486fda68888305e2018560405161055991906125cb565b60405180910390a35050505050565b600081815260036020908152604080832080548251818502810185019093528083528493849084015b828210156107f557838290600052602060002090600a02016040518061014001604052908160008201548152602001600182015481526020016002820180546105d9906125d9565b80601f0160208091040260200160405190810160405280929190818152602001828054610605906125d9565b80156106525780601f1061062757610100808354040283529160200191610652565b820191906000526020600020905b81548152906001019060200180831161063557829003601f168201915b5050505050815260200160038201805461066b906125d9565b80601f0160208091040260200160405190810160405280929190818152602001828054610697906125d9565b80156106e45780601f106106b9576101008083540402835291602001916106e4565b820191906000526020600020905b8154815290600101906020018083116106c757829003601f168201915b5050509183525050600482810154602083015260058301546040830152600683015460609092019160ff169081111561071f5761071f6121b8565b6004811115610730576107306121b8565b81526020016007820154815260200160088201805461074e906125d9565b80601f016020809104026020016040519081016040528092919081815260200182805461077a906125d9565b80156107c75780601f1061079c576101008083540402835291602001916107c7565b820191906000526020600020905b8154815290600101906020018083116107aa57829003601f168201915b5050509183525050600991909101546001600160a01b03166020918201529082526001929092019101610591565b5050505090506000805b825181101561087c57600283828151811061081c5761081c6125b5565b602002602001015160c001516004811115610839576108396121b8565b1461086a57828181518110610850576108506125b5565b602002602001015160a00151826108679190612629565b91505b806108748161263c565b9150506107ff565b509392505050565b600081815260036020908152604080832080548251818502810185019093528083528493849084015b82821015610b1157838290600052602060002090600a02016040518061014001604052908160008201548152602001600182015481526020016002820180546108f5906125d9565b80601f0160208091040260200160405190810160405280929190818152602001828054610921906125d9565b801561096e5780601f106109435761010080835404028352916020019161096e565b820191906000526020600020905b81548152906001019060200180831161095157829003601f168201915b50505050508152602001600382018054610987906125d9565b80601f01602080910402602001604051908101604052809291908181526020018280546109b3906125d9565b8015610a005780601f106109d557610100808354040283529160200191610a00565b820191906000526020600020905b8154815290600101906020018083116109e357829003601f168201915b5050509183525050600482810154602083015260058301546040830152600683015460609092019160ff1690811115610a3b57610a3b6121b8565b6004811115610a4c57610a4c6121b8565b815260200160078201548152602001600882018054610a6a906125d9565b80601f0160208091040260200160405190810160405280929190818152602001828054610a96906125d9565b8015610ae35780601f10610ab857610100808354040283529160200191610ae3565b820191906000526020600020905b815481529060010190602001808311610ac657829003601f168201915b5050509183525050600991909101546001600160a01b031660209182015290825260019290920191016108ad565b5050505090508051600003610b295750600092915050565b6000805b8251811015610b8c576002838281518110610b4a57610b4a6125b5565b602002602001015160c001516004811115610b6757610b676121b8565b03610b7a5781610b768161263c565b9250505b80610b848161263c565b915050610b2d565b508151610b9a826064612655565b610ba4919061266c565b949350505050565b600082815260208190526040902060010154610bc781611f3e565b610bd18383611f4b565b50505050565b6001600160a01b0381163314610c005760405163334bd91960e11b815260040160405180910390fd5b610c0a8282611fdd565b505050565b606060036000838152602001908152602001600020805480602002602001604051908101604052809291908181526020016000905b82821015610ea857838290600052602060002090600a0201604051806101400160405290816000820154815260200160018201548152602001600282018054610c8c906125d9565b80601f0160208091040260200160405190810160405280929190818152602001828054610cb8906125d9565b8015610d055780601f10610cda57610100808354040283529160200191610d05565b820191906000526020600020905b815481529060010190602001808311610ce857829003601f168201915b50505050508152602001600382018054610d1e906125d9565b80601f0160208091040260200160405190810160405280929190818152602001828054610d4a906125d9565b8015610d975780601f10610d6c57610100808354040283529160200191610d97565b820191906000526020600020905b815481529060010190602001808311610d7a57829003601f168201915b5050509183525050600482810154602083015260058301546040830152600683015460609092019160ff1690811115610dd257610dd26121b8565b6004811115610de357610de36121b8565b815260200160078201548152602001600882018054610e01906125d9565b80601f0160208091040260200160405190810160405280929190818152602001828054610e2d906125d9565b8015610e7a5780601f10610e4f57610100808354040283529160200191610e7a565b820191906000526020600020905b815481529060010190602001808311610e5d57829003601f168201915b5050509183525050600991909101546001600160a01b03166020918201529082526001929092019101610c44565b505050509050919050565b60036020528160005260406000208181548110610ecf57600080fd5b90600052602060002090600a020160009150915050806000015490806001015490806002018054610eff906125d9565b80601f0160208091040260200160405190810160405280929190818152602001828054610f2b906125d9565b8015610f785780601f10610f4d57610100808354040283529160200191610f78565b820191906000526020600020905b815481529060010190602001808311610f5b57829003601f168201915b505050505090806003018054610f8d906125d9565b80601f0160208091040260200160405190810160405280929190818152602001828054610fb9906125d9565b80156110065780601f10610fdb57610100808354040283529160200191611006565b820191906000526020600020905b815481529060010190602001808311610fe957829003601f168201915b50505060048401546005850154600686015460078701546008880180549798949793965060ff9092169450929161103c906125d9565b80601f0160208091040260200160405190810160405280929190818152602001828054611068906125d9565b80156110b55780601f1061108a576101008083540402835291602001916110b5565b820191906000526020600020905b81548152906001019060200180831161109857829003601f168201915b505050600990930154919250506001600160a01b03168a565b7f0ce23c3e399818cfee81a7ab0880f714e53d7672b08df0fa62f2843416e1ea096110f881611f3e565b611100612048565b600084815260046020908152604080832086845290915290205460ff166111395760405162461bcd60e51b815260040161045f9061257e565b60008251116111835760405162461bcd60e51b8152602060048201526016602482015275115d9a59195b98d9481a185cda081c995c5d5a5c995960521b604482015260640161045f565b60008481526003602052604081208054859081106111a3576111a36125b5565b60009182526020909120600a9091020190506002600682015460ff1660048111156111d0576111d06121b8565b0361121d5760405162461bcd60e51b815260206004820152601b60248201527f4d696c6573746f6e6520616c726561647920636f6d706c657465640000000000604482015260640161045f565b6004600682015460ff166004811115611238576112386121b8565b036112855760405162461bcd60e51b815260206004820181905260248201527f43616e6e6f7420636f6d706c657465206661696c6564206d696c6573746f6e65604482015260640161045f565b60068101805460ff19166002179055426007820155600881016112a884826126dc565b506009810180546001600160a01b031916331790556002546005820154604051636fbc21d760e11b81526001600160a01b03929092169163df7843ae916112fd91899190600401918252602082015260400190565b600060405180830381600087803b15801561131757600080fd5b505af115801561132b573d6000803e3d6000fd5b5050505083857faaf532144ebdf15b5060640d8f889d676b1814f156f324ab538ce58133120c5683600501548660405161136692919061279c565b60405180910390a350610bd160018055565b60007fa49807205ce4d355092ef5a8a18f56e8913cf4a201fbe287825b095693c217756113a481611f3e565b60008651116113f55760405162461bcd60e51b815260206004820152601760248201527f4d696c6573746f6e65206e616d65207265717569726564000000000000000000604482015260640161045f565b4284116114445760405162461bcd60e51b815260206004820152601d60248201527f5461726765742064617465206d75737420626520696e20667574757265000000604482015260640161045f565b600083116114a75760405162461bcd60e51b815260206004820152602a60248201527f46756e647320746f2072656c65617365206d7573742062652067726561746572604482015269207468616e207a65726f60b01b606482015260840161045f565b60025460405163fce6090360e01b8152600481018990526000916001600160a01b03169063fce6090390602401602060405180830381865afa1580156114f1573d6000803e3d6000fd5b505050506040513d601f19601f8201168201806040525081019061151591906127b5565b600089815260036020526040812091925090815b81548110156115b7576002828281548110611546576115466125b5565b600091825260209091206006600a90920201015460ff16600481111561156e5761156e6121b8565b146115a557818181548110611585576115856125b5565b90600052602060002090600a020160050154836115a29190612629565b92505b806115af8161263c565b915050611529565b50826115c38784612629565b111561161b5760405162461bcd60e51b815260206004820152602160248201527f496e73756666696369656e7420657363726f7720666f72206d696c6573746f6e6044820152606560f81b606482015260840161045f565b60008a8152600360209081526040808320805482516101408101845260055481529384018f90529183018d9052606083018c9052608083018b905260a083018a9052909290919060c0820190815260006020808301829052604080518083018252838152818501526060909301829052845460018181018755958352918190208451600a909302019182558301519381019390935581015190919060028201906116c590826126dc565b50606082015160038201906116da90826126dc565b506080820151816004015560a0820151816005015560c08201518160060160006101000a81548160ff02191690836004811115611719576117196121b8565b021790555060e08201516007820155610100820151600882019061173d90826126dc565b506101209190910151600990910180546001600160a01b0319166001600160a01b0390921691909117905560008b81526004602090815260408083208484529091528120805460ff19166001179055600580549161179a8361263c565b9190505550808b7f3d198c5d9c28f50bf234c9c1a9a84f7ed3a20d152833a06c844a8e897261abd28c8a6040516117d29291906127ce565b60405180910390a39a9950505050505050505050565b60008281526004602090815260408083208484529091528120546060918291819081908190859060ff1661182e5760405162461bcd60e51b815260040161045f9061257e565b600089815260036020526040812080548a90811061184e5761184e6125b5565b90600052602060002090600a020160405180610140016040529081600082015481526020016001820154815260200160028201805461188c906125d9565b80601f01602080910402602001604051908101604052809291908181526020018280546118b8906125d9565b80156119055780601f106118da57610100808354040283529160200191611905565b820191906000526020600020905b8154815290600101906020018083116118e857829003601f168201915b5050505050815260200160038201805461191e906125d9565b80601f016020809104026020016040519081016040528092919081815260200182805461194a906125d9565b80156119975780601f1061196c57610100808354040283529160200191611997565b820191906000526020600020905b81548152906001019060200180831161197a57829003601f168201915b5050509183525050600482810154602083015260058301546040830152600683015460609092019160ff16908111156119d2576119d26121b8565b60048111156119e3576119e36121b8565b815260200160078201548152602001600882018054611a01906125d9565b80601f0160208091040260200160405190810160405280929190818152602001828054611a2d906125d9565b8015611a7a5780601f10611a4f57610100808354040283529160200191611a7a565b820191906000526020600020905b815481529060010190602001808311611a5d57829003601f168201915b5050509183525050600991909101546001600160a01b031660209091015260408101516060820151608083015160a084015160c085015160e08601516101009690960151949d50929b509099509750955090935091505092959891949750929550565b6000918252602082815260408084206001600160a01b0393909316845291905290205460ff1690565b600082815260046020908152604080832084845290915281205460ff16611b3f5760405162461bcd60e51b815260040161045f9061257e565b6000838152600360205260408120805484908110611b5f57611b5f6125b5565b90600052602060002090600a0201604051806101400160405290816000820154815260200160018201548152602001600282018054611b9d906125d9565b80601f0160208091040260200160405190810160405280929190818152602001828054611bc9906125d9565b8015611c165780601f10611beb57610100808354040283529160200191611c16565b820191906000526020600020905b815481529060010190602001808311611bf957829003601f168201915b50505050508152602001600382018054611c2f906125d9565b80601f0160208091040260200160405190810160405280929190818152602001828054611c5b906125d9565b8015611ca85780601f10611c7d57610100808354040283529160200191611ca8565b820191906000526020600020905b815481529060010190602001808311611c8b57829003601f168201915b5050509183525050600482810154602083015260058301546040830152600683015460609092019160ff1690811115611ce357611ce36121b8565b6004811115611cf457611cf46121b8565b815260200160078201548152602001600882018054611d12906125d9565b80601f0160208091040260200160405190810160405280929190818152602001828054611d3e906125d9565b8015611d8b5780601f10611d6057610100808354040283529160200191611d8b565b820191906000526020600020905b815481529060010190602001808311611d6e57829003601f168201915b5050509183525050600991909101546001600160a01b0316602090910152905060028160c001516004811115611dc357611dc36121b8565b14158015610ba457506080015142119392505050565b7fa49807205ce4d355092ef5a8a18f56e8913cf4a201fbe287825b095693c21775611e0381611f3e565b600084815260046020908152604080832086845290915290205460ff16611e3c5760405162461bcd60e51b815260040161045f9061257e565b6000848152600360205260408120805485908110611e5c57611e5c6125b5565b60009182526020909120600a9091020190506002600682015460ff166004811115611e8957611e896121b8565b03611ed65760405162461bcd60e51b815260206004820152601f60248201527f43616e6e6f74206661696c20636f6d706c65746564206d696c6573746f6e6500604482015260640161045f565b60068101805460ff19166004179055604051849086907f6ee147c7fd218ad34ea0bac0cad5d0b9af393ee652adaad1866fb2536baaac8d906105599087906127f0565b600082815260208190526040902060010154611f3481611f3e565b610bd18383611fdd565b611f488133612072565b50565b6000611f578383611add565b611fd5576000838152602081815260408083206001600160a01b03861684529091529020805460ff19166001179055611f8d3390565b6001600160a01b0316826001600160a01b0316847f2f8788117e7eff1d82e926ec794901d17c78024a50270940304540a733656f0d60405160405180910390a45060016103f6565b5060006103f6565b6000611fe98383611add565b15611fd5576000838152602081815260408083206001600160a01b0386168085529252808320805460ff1916905551339286917ff6391f5c32d9c69d2a47ea670b442974b53935d1edc7fd64eb21e047a839171b9190a45060016103f6565b60026001540361206b57604051633ee5aeb560e01b815260040160405180910390fd5b6002600155565b61207c8282611add565b6120ab5760405163e2517d3f60e01b81526001600160a01b03821660048201526024810183905260440161045f565b5050565b6000602082840312156120c157600080fd5b81356001600160e01b0319811681146120d957600080fd5b9392505050565b6000806000606084860312156120f557600080fd5b833592506020840135915060408401356005811061211257600080fd5b809150509250925092565b60006020828403121561212f57600080fd5b5035919050565b6000806040838503121561214957600080fd5b8235915060208301356001600160a01b038116811461216757600080fd5b809150509250929050565b6000815180845260005b818110156121985760208185018101518683018201520161217c565b506000602082860101526020601f19601f83011685010191505092915050565b634e487b7160e01b600052602160045260246000fd5b600581106121ec57634e487b7160e01b600052602160045260246000fd5b9052565b60006020808301818452808551808352604092508286019150828160051b87010184880160005b838110156122ed57603f19898403018552815161014081518552888201518986015287820151818987015261224e82870182612172565b915050606080830151868303828801526122688382612172565b92505050608080830151818701525060a080830151818701525060c080830151612294828801826121ce565b505060e0828101519086015261010080830151868303828801526122b88382612172565b925050506101208083015192506122d9818701846001600160a01b03169052565b509588019593505090860190600101612217565b509098975050505050505050565b6000806040838503121561230e57600080fd5b50508035926020909101359150565b60006101408c83528b602084015280604084015261233d8184018c612172565b90508281036060840152612351818b612172565b90508860808401528760a084015261236c60c08401886121ce565b8560e08401528281036101008401526123858186612172565b91505060018060a01b0383166101208301529b9a5050505050505050505050565b634e487b7160e01b600052604160045260246000fd5b600082601f8301126123cd57600080fd5b813567ffffffffffffffff808211156123e8576123e86123a6565b604051601f8301601f19908116603f01168101908282118183101715612410576124106123a6565b8160405283815286602085880101111561242957600080fd5b836020870160208301376000602085830101528094505050505092915050565b60008060006060848603121561245e57600080fd5b8335925060208401359150604084013567ffffffffffffffff81111561248357600080fd5b61248f868287016123bc565b9150509250925092565b600080600080600060a086880312156124b157600080fd5b85359450602086013567ffffffffffffffff808211156124d057600080fd5b6124dc89838a016123bc565b955060408801359150808211156124f257600080fd5b506124ff888289016123bc565b9598949750949560608101359550608001359392505050565b60e08152600061252b60e083018a612172565b828103602084015261253d818a612172565b905087604084015286606084015261255860808401876121ce565b8460a084015282810360c08401526125708185612172565b9a9950505050505050505050565b60208082526018908201527f4d696c6573746f6e6520646f6573206e6f742065786973740000000000000000604082015260600190565b634e487b7160e01b600052603260045260246000fd5b602081016103f682846121ce565b600181811c908216806125ed57607f821691505b60208210810361260d57634e487b7160e01b600052602260045260246000fd5b50919050565b634e487b7160e01b600052601160045260246000fd5b808201808211156103f6576103f6612613565b60006001820161264e5761264e612613565b5060010190565b80820281158282048414176103f6576103f6612613565b60008261268957634e487b7160e01b600052601260045260246000fd5b500490565b601f821115610c0a57600081815260208120601f850160051c810160208610156126b55750805b601f850160051c820191505b818110156126d4578281556001016126c1565b505050505050565b815167ffffffffffffffff8111156126f6576126f66123a6565b61270a8161270484546125d9565b8461268e565b602080601f83116001811461273f57600084156127275750858301515b600019600386901b1c1916600185901b1785556126d4565b600085815260208120601f198616915b8281101561276e5788860151825594840194600190910190840161274f565b508582101561278c5787850151600019600388901b60f8161c191681555b5050505050600190811b01905550565b828152604060208201526000610ba46040830184612172565b6000602082840312156127c757600080fd5b5051919050565b6040815260006127e16040830185612172565b90508260208301529392505050565b6020815260006120d9602083018461217256fea2646970667358221220c8ae75b064950512c8c0433fa644ba27bd0ba2dcf2c3101006b42659c64b852a64736f6c63430008140033",
  "linkReferences": {},
  "deployedLinkReferences": {}
}